{
  "contractName": "SampleToken",
  "abi": [
    {
      "inputs": [],
      "stateMutability": "nonpayable",
      "type": "constructor"
    },
    {
      "anonymous": false,
      "inputs": [
        {
          "indexed": true,
          "internalType": "address",
          "name": "user",
          "type": "address"
        },
        {
          "indexed": false,
          "internalType": "uint256",
          "name": "timestamp",
          "type": "uint256"
        }
      ],
      "name": "CustomEvent",
      "type": "event"
    },
    {
      "inputs": [
        {
          "internalType": "address",
          "name": "",
          "type": "address"
        }
      ],
      "name": "balanceOf",
      "outputs": [
        {
          "internalType": "uint256",
          "name": "",
          "type": "uint256"
        }
      ],
      "stateMutability": "view",
      "type": "function",
      "constant": true
    },
    {
      "inputs": [],
      "name": "decimals",
      "outputs": [
        {
          "internalType": "uint8",
          "name": "",
          "type": "uint8"
        }
      ],
      "stateMutability": "view",
      "type": "function",
      "constant": true
    },
    {
      "inputs": [],
      "name": "name",
      "outputs": [
        {
          "internalType": "string",
          "name": "",
          "type": "string"
        }
      ],
      "stateMutability": "view",
      "type": "function",
      "constant": true
    },
    {
      "inputs": [],
      "name": "symbol",
      "outputs": [
        {
          "internalType": "string",
          "name": "",
          "type": "string"
        }
      ],
      "stateMutability": "view",
      "type": "function",
      "constant": true
    },
    {
      "inputs": [],
      "name": "totalSupply",
      "outputs": [
        {
          "internalType": "uint256",
          "name": "",
          "type": "uint256"
        }
      ],
      "stateMutability": "view",
      "type": "function",
      "constant": true
    },
    {
      "inputs": [],
      "name": "triggerEvent",
      "outputs": [],
      "stateMutability": "nonpayable",
      "type": "function"
    },
    {
      "inputs": [
        {
          "internalType": "address",
          "name": "to",
          "type": "address"
        },
        {
          "internalType": "uint256",
          "name": "value",
          "type": "uint256"
        }
      ],
      "name": "transfer",
      "outputs": [],
      "stateMutability": "nonpayable",
      "type": "function"
    }
  ],
  "bytecode": "0x60806040526040518060400160405280600c81526020017f53616d706c6520546f6b656e000000000000000000000000000000000000000081525060009080519060200190620000519291906200014a565b506040518060400160405280600381526020017f534d540000000000000000000000000000000000000000000000000000000000815250600190805190602001906200009f9291906200014a565b506012600260006101000a81548160ff021916908360ff160217905550600260009054906101000a900460ff1660ff16600a620000dd919062000255565b620f4240620000ed919062000392565b600355348015620000fd57600080fd5b50600354600460003373ffffffffffffffffffffffffffffffffffffffff1673ffffffffffffffffffffffffffffffffffffffff168152602001908152602001600020819055506200049e565b8280546200015890620003fd565b90600052602060002090601f0160209004810192826200017c5760008555620001c8565b82601f106200019757805160ff1916838001178555620001c8565b82800160010185558215620001c8579182015b82811115620001c7578251825591602001919060010190620001aa565b5b509050620001d79190620001db565b5090565b5b80821115620001f6576000816000905550600101620001dc565b5090565b6000808291508390505b60018511156200024c5780860481111562000224576200022362000433565b5b6001851615620002345780820291505b8081029050620002448562000491565b945062000204565b94509492505050565b60006200026282620003f3565b91506200026f83620003f3565b92506200029e7fffffffffffffffffffffffffffffffffffffffffffffffffffffffffffffffff8484620002a6565b905092915050565b600082620002b857600190506200038b565b81620002c857600090506200038b565b8160018114620002e15760028114620002ec5762000322565b60019150506200038b565b60ff84111562000301576200030062000433565b5b8360020a9150848211156200031b576200031a62000433565b5b506200038b565b5060208310610133831016604e8410600b84101617156200035c5782820a90508381111562000356576200035562000433565b5b6200038b565b6200036b8484846001620001fa565b9250905081840481111562000385576200038462000433565b5b81810290505b9392505050565b60006200039f82620003f3565b9150620003ac83620003f3565b9250817fffffffffffffffffffffffffffffffffffffffffffffffffffffffffffffffff0483118215151615620003e857620003e762000433565b5b828202905092915050565b6000819050919050565b600060028204905060018216806200041657607f821691505b602082108114156200042d576200042c62000462565b5b50919050565b7f4e487b7100000000000000000000000000000000000000000000000000000000600052601160045260246000fd5b7f4e487b7100000000000000000000000000000000000000000000000000000000600052602260045260246000fd5b60008160011c9050919050565b6107e480620004ae6000396000f3fe608060405234801561001057600080fd5b506004361061007d5760003560e01c806370a082311161005b57806370a08231146100dc57806395d89b411461010c578063a9059cbb1461012a578063ede48fb7146101465761007d565b806306fdde031461008257806318160ddd146100a0578063313ce567146100be575b600080fd5b61008a610150565b6040516100979190610545565b60405180910390f35b6100a86101de565b6040516100b59190610587565b60405180910390f35b6100c66101e4565b6040516100d391906105a2565b60405180910390f35b6100f660048036038101906100f19190610449565b6101f7565b6040516101039190610587565b60405180910390f35b61011461020f565b6040516101219190610545565b60405180910390f35b610144600480360381019061013f9190610472565b61029d565b005b61014e6103cf565b005b6000805461015d906106df565b80601f0160208091040260200160405190810160405280929190818152602001828054610189906106df565b80156101d65780601f106101ab576101008083540402835291602001916101d6565b820191906000526020600020905b8154815290600101906020018083116101b957829003601f168201915b505050505081565b60035481565b600260009054906101000a900460ff1681565b60046020528060005260406000206000915090505481565b6001805461021c906106df565b80601f0160208091040260200160405190810160405280929190818152602001828054610248906106df565b80156102955780601f1061026a57610100808354040283529160200191610295565b820191906000526020600020905b81548152906001019060200180831161027857829003601f168201915b505050505081565b80600460003373ffffffffffffffffffffffffffffffffffffffff1673ffffffffffffffffffffffffffffffffffffffff16815260200190815260200160002054101561031f576040517f08c379a000000000000000000000000000000000000000000000000000000000815260040161031690610567565b60405180910390fd5b80600460003373ffffffffffffffffffffffffffffffffffffffff1673ffffffffffffffffffffffffffffffffffffffff168152602001908152602001600020600082825461036e919061062f565b9250508190555080600460008473ffffffffffffffffffffffffffffffffffffffff1673ffffffffffffffffffffffffffffffffffffffff16815260200190815260200160002060008282546103c491906105d9565b925050819055505050565b3373ffffffffffffffffffffffffffffffffffffffff167f6ae3dc232675dab4521079a814711e8f8e531aebd174b9cce6d65564672d9e35426040516104159190610587565b60405180910390a2565b60008135905061042e81610780565b92915050565b60008135905061044381610797565b92915050565b60006020828403121561045b57600080fd5b60006104698482850161041f565b91505092915050565b6000806040838503121561048557600080fd5b60006104938582860161041f565b92505060206104a485828601610434565b9150509250929050565b60006104b9826105bd565b6104c381856105c8565b93506104d38185602086016106ac565b6104dc8161076f565b840191505092915050565b60006104f46014836105c8565b91507f496e73756666696369656e742062616c616e63650000000000000000000000006000830152602082019050919050565b61053081610695565b82525050565b61053f8161069f565b82525050565b6000602082019050818103600083015261055f81846104ae565b905092915050565b60006020820190508181036000830152610580816104e7565b9050919050565b600060208201905061059c6000830184610527565b92915050565b60006020820190506105b76000830184610536565b92915050565b600081519050919050565b600082825260208201905092915050565b60006105e482610695565b91506105ef83610695565b9250827fffffffffffffffffffffffffffffffffffffffffffffffffffffffffffffffff0382111561062457610623610711565b5b828201905092915050565b600061063a82610695565b915061064583610695565b92508282101561065857610657610711565b5b828203905092915050565b600061066e82610675565b9050919050565b600073ffffffffffffffffffffffffffffffffffffffff82169050919050565b6000819050919050565b600060ff82169050919050565b60005b838110156106ca5780820151818401526020810190506106af565b838111156106d9576000848401525b50505050565b600060028204905060018216806106f757607f821691505b6020821081141561070b5761070a610740565b5b50919050565b7f4e487b7100000000000000000000000000000000000000000000000000000000600052601160045260246000fd5b7f4e487b7100000000000000000000000000000000000000000000000000000000600052602260045260246000fd5b6000601f19601f8301169050919050565b61078981610663565b811461079457600080fd5b50565b6107a081610695565b81146107ab57600080fd5b5056fea2646970667358221220cdd04ecb39f618cc010ed567b3bfbf513aacbc6787e194f9a75ddcf7a93f5fa064736f6c63430008000033",
  "immutableReferences": {},
  "source": "// SPDX-License-Identifier: MIT\npragma solidity ^0.8.0;\n\ncontract SampleToken {\n    string public name = \"Sample Token\";\n    string public symbol = \"SMT\";\n    uint8 public decimals = 18;\n    uint256 public totalSupply = 1000000 * (10 ** uint256(decimals));\n    mapping(address => uint256) public balanceOf;\n\n    constructor() {\n        balanceOf[msg.sender] = totalSupply;\n    }\n\n    event CustomEvent(address indexed user, uint256 timestamp);\n\n    function triggerEvent() public {\n        // Emit the CustomEvent\n        emit CustomEvent(msg.sender, block.timestamp);\n    }\n\n    function transfer(address to, uint256 value) public {\n        require(balanceOf[msg.sender] >= value, \"Insufficient balance\");\n        balanceOf[msg.sender] -= value;\n        balanceOf[to] += value;\n    }\n}\n",
  "sourcePath": "/home/pruthvi/Desktop/LYNC-Nodejs/contracts/SampleToken.sol",
  "compiler": {
    "name": "solc",
    "version": "0.8.0+commit.c7dfd78e.Emscripten.clang"
  },
  "schemaVersion": "3.4.15",
  "updatedAt": "2023-08-22T12:48:59.718Z",
  "networkType": "ethereum",
  "devdoc": {
    "kind": "dev",
    "methods": {},
    "version": 1
  },
  "userdoc": {
    "kind": "user",
    "methods": {},
    "version": 1
  }
}